{
  "contractName": "BRZCO2Sale",
  "abi": [
    {
      "inputs": [
        {
          "internalType": "uint256",
          "name": "_startOfSale",
          "type": "uint256"
        },
        {
          "internalType": "uint256",
          "name": "_endOfSale",
          "type": "uint256"
        },
        {
          "internalType": "string",
          "name": "_price",
          "type": "string"
        }
      ],
      "stateMutability": "nonpayable",
      "type": "constructor"
    },
    {
      "anonymous": false,
      "inputs": [
        {
          "indexed": false,
          "internalType": "address",
          "name": "_owner",
          "type": "address"
        },
        {
          "indexed": false,
          "internalType": "uint256",
          "name": "_less",
          "type": "uint256"
        }
      ],
      "name": "Decrease",
      "type": "event"
    },
    {
      "anonymous": false,
      "inputs": [
        {
          "indexed": false,
          "internalType": "uint256",
          "name": "tokensForSale",
          "type": "uint256"
        }
      ],
      "name": "Increase",
      "type": "event"
    },
    {
      "anonymous": false,
      "inputs": [
        {
          "indexed": true,
          "internalType": "address",
          "name": "previousOwner",
          "type": "address"
        },
        {
          "indexed": true,
          "internalType": "address",
          "name": "newOwner",
          "type": "address"
        }
      ],
      "name": "OwnershipTransferred",
      "type": "event"
    },
    {
      "anonymous": false,
      "inputs": [
        {
          "indexed": false,
          "internalType": "address",
          "name": "msgSender",
          "type": "address"
        },
        {
          "indexed": false,
          "internalType": "string",
          "name": "price",
          "type": "string"
        },
        {
          "indexed": false,
          "internalType": "string",
          "name": "_newPrice",
          "type": "string"
        }
      ],
      "name": "Price",
      "type": "event"
    },
    {
      "anonymous": false,
      "inputs": [
        {
          "indexed": false,
          "internalType": "address",
          "name": "",
          "type": "address"
        },
        {
          "indexed": false,
          "internalType": "uint256",
          "name": "",
          "type": "uint256"
        }
      ],
      "name": "Received",
      "type": "event"
    },
    {
      "anonymous": false,
      "inputs": [
        {
          "indexed": false,
          "internalType": "address",
          "name": "_buyer",
          "type": "address"
        },
        {
          "indexed": false,
          "internalType": "uint256",
          "name": "_amount",
          "type": "uint256"
        }
      ],
      "name": "Sell",
      "type": "event"
    },
    {
      "inputs": [],
      "name": "endOfSale",
      "outputs": [
        {
          "internalType": "uint256",
          "name": "",
          "type": "uint256"
        }
      ],
      "stateMutability": "view",
      "type": "function",
      "constant": true
    },
    {
      "inputs": [],
      "name": "icoStatus",
      "outputs": [
        {
          "internalType": "enum BRZCO2Sale.Status",
          "name": "",
          "type": "uint8"
        }
      ],
      "stateMutability": "view",
      "type": "function",
      "constant": true
    },
    {
      "inputs": [
        {
          "internalType": "uint256",
          "name": "",
          "type": "uint256"
        }
      ],
      "name": "investorAddresses",
      "outputs": [
        {
          "internalType": "address",
          "name": "",
          "type": "address"
        }
      ],
      "stateMutability": "view",
      "type": "function",
      "constant": true
    },
    {
      "inputs": [
        {
          "internalType": "address",
          "name": "",
          "type": "address"
        }
      ],
      "name": "investorBalances",
      "outputs": [
        {
          "internalType": "uint256",
          "name": "",
          "type": "uint256"
        }
      ],
      "stateMutability": "view",
      "type": "function",
      "constant": true
    },
    {
      "inputs": [],
      "name": "owner",
      "outputs": [
        {
          "internalType": "address",
          "name": "",
          "type": "address"
        }
      ],
      "stateMutability": "view",
      "type": "function",
      "constant": true
    },
    {
      "inputs": [],
      "name": "price",
      "outputs": [
        {
          "internalType": "string",
          "name": "",
          "type": "string"
        }
      ],
      "stateMutability": "view",
      "type": "function",
      "constant": true
    },
    {
      "inputs": [],
      "name": "renounceOwnership",
      "outputs": [],
      "stateMutability": "nonpayable",
      "type": "function"
    },
    {
      "inputs": [],
      "name": "soldTokens",
      "outputs": [
        {
          "internalType": "uint256",
          "name": "",
          "type": "uint256"
        }
      ],
      "stateMutability": "view",
      "type": "function",
      "constant": true
    },
    {
      "inputs": [],
      "name": "startOfSale",
      "outputs": [
        {
          "internalType": "uint256",
          "name": "",
          "type": "uint256"
        }
      ],
      "stateMutability": "view",
      "type": "function",
      "constant": true
    },
    {
      "inputs": [],
      "name": "tokenContract",
      "outputs": [
        {
          "internalType": "contract BrazilCarbonCredit",
          "name": "",
          "type": "address"
        }
      ],
      "stateMutability": "view",
      "type": "function",
      "constant": true
    },
    {
      "inputs": [],
      "name": "tokensForSale",
      "outputs": [
        {
          "internalType": "uint256",
          "name": "",
          "type": "uint256"
        }
      ],
      "stateMutability": "view",
      "type": "function",
      "constant": true
    },
    {
      "inputs": [
        {
          "internalType": "address",
          "name": "newOwner",
          "type": "address"
        }
      ],
      "name": "transferOwnership",
      "outputs": [],
      "stateMutability": "nonpayable",
      "type": "function"
    },
    {
      "stateMutability": "payable",
      "type": "receive",
      "payable": true
    },
    {
      "inputs": [
        {
          "internalType": "address",
          "name": "_owner",
          "type": "address"
        },
        {
          "internalType": "uint256",
          "name": "_less",
          "type": "uint256"
        }
      ],
      "name": "decreaseTokensForSale",
      "outputs": [],
      "stateMutability": "nonpayable",
      "type": "function"
    },
    {
      "inputs": [],
      "name": "closeSale",
      "outputs": [],
      "stateMutability": "nonpayable",
      "type": "function"
    },
    {
      "inputs": [],
      "name": "increaseTokensForSale",
      "outputs": [],
      "stateMutability": "nonpayable",
      "type": "function"
    },
    {
      "inputs": [
        {
          "internalType": "string",
          "name": "_newPrice",
          "type": "string"
        }
      ],
      "name": "managePrice",
      "outputs": [],
      "stateMutability": "nonpayable",
      "type": "function"
    },
    {
      "inputs": [
        {
          "internalType": "uint256",
          "name": "_newEndOfSale",
          "type": "uint256"
        }
      ],
      "name": "manageTime",
      "outputs": [],
      "stateMutability": "nonpayable",
      "type": "function"
    },
    {
      "inputs": [
        {
          "internalType": "contract BrazilCarbonCredit",
          "name": "_tokenContract",
          "type": "address"
        }
      ],
      "name": "setTokenContract",
      "outputs": [],
      "stateMutability": "nonpayable",
      "type": "function"
    },
    {
      "inputs": [],
      "name": "withdraw",
      "outputs": [],
      "stateMutability": "nonpayable",
      "type": "function"
    },
    {
      "inputs": [],
      "name": "getBalance",
      "outputs": [
        {
          "internalType": "uint256",
          "name": "",
          "type": "uint256"
        }
      ],
      "stateMutability": "view",
      "type": "function",
      "constant": true
    },
    {
      "inputs": [
        {
          "internalType": "uint256",
          "name": "_numberOfTokens",
          "type": "uint256"
        },
        {
          "internalType": "uint256",
          "name": "_tokenPrice",
          "type": "uint256"
        }
      ],
      "name": "buyTokens",
      "outputs": [],
      "stateMutability": "payable",
      "type": "function",
      "payable": true
    },
    {
      "inputs": [],
      "name": "paused",
      "outputs": [],
      "stateMutability": "nonpayable",
      "type": "function"
    },
    {
      "inputs": [],
      "name": "unpaused",
      "outputs": [],
      "stateMutability": "nonpayable",
      "type": "function"
    },
    {
      "inputs": [],
      "name": "getCurrentStatus",
      "outputs": [
        {
          "internalType": "enum BRZCO2Sale.Status",
          "name": "",
          "type": "uint8"
        }
      ],
      "stateMutability": "view",
      "type": "function",
      "constant": true
    }
  ],
  "bytecode": "0x60806040526000600960006101000a81548160ff0219169083151502179055503480156200002c57600080fd5b5060405162003643380380620036438339818101604052810190620000529190620004b4565b62000072620000666200016060201b60201c565b6200016860201b60201c565b42821180156200008157508282115b620000c3576040517f08c379a0000000000000000000000000000000000000000000000000000000008152600401620000ba9062000590565b60405180910390fd5b82600481905550816005819055508060069080519060200190620000e99291906200022c565b5060045442101562000129576000600160146101000a81548160ff021916908360038111156200011e576200011d620005b2565b5b021790555062000157565b60018060146101000a81548160ff02191690836003811115620001515762000150620005b2565b5b02179055505b50505062000646565b600033905090565b60008060009054906101000a900473ffffffffffffffffffffffffffffffffffffffff169050816000806101000a81548173ffffffffffffffffffffffffffffffffffffffff021916908373ffffffffffffffffffffffffffffffffffffffff1602179055508173ffffffffffffffffffffffffffffffffffffffff168173ffffffffffffffffffffffffffffffffffffffff167f8be0079c531659141344cd1fd0a4f28419497f9722a3daafe3b4186f6b6457e060405160405180910390a35050565b8280546200023a9062000610565b90600052602060002090601f0160209004810192826200025e5760008555620002aa565b82601f106200027957805160ff1916838001178555620002aa565b82800160010185558215620002aa579182015b82811115620002a95782518255916020019190600101906200028c565b5b509050620002b99190620002bd565b5090565b5b80821115620002d8576000816000905550600101620002be565b5090565b6000604051905090565b600080fd5b600080fd5b6000819050919050565b6200030581620002f0565b81146200031157600080fd5b50565b6000815190506200032581620002fa565b92915050565b600080fd5b600080fd5b6000601f19601f8301169050919050565b7f4e487b7100000000000000000000000000000000000000000000000000000000600052604160045260246000fd5b620003808262000335565b810181811067ffffffffffffffff82111715620003a257620003a162000346565b5b80604052505050565b6000620003b7620002dc565b9050620003c5828262000375565b919050565b600067ffffffffffffffff821115620003e857620003e762000346565b5b620003f38262000335565b9050602081019050919050565b60005b838110156200042057808201518184015260208101905062000403565b8381111562000430576000848401525b50505050565b60006200044d6200044784620003ca565b620003ab565b9050828152602081018484840111156200046c576200046b62000330565b5b6200047984828562000400565b509392505050565b600082601f8301126200049957620004986200032b565b5b8151620004ab84826020860162000436565b91505092915050565b600080600060608486031215620004d057620004cf620002e6565b5b6000620004e08682870162000314565b9350506020620004f38682870162000314565b925050604084015167ffffffffffffffff811115620005175762000516620002eb565b5b620005258682870162000481565b9150509250925092565b600082825260208201905092915050565b7f57726f6e6720656e64206f662073616c65206461746521000000000000000000600082015250565b6000620005786017836200052f565b9150620005858262000540565b602082019050919050565b60006020820190508181036000830152620005ab8162000569565b9050919050565b7f4e487b7100000000000000000000000000000000000000000000000000000000600052602160045260246000fd5b7f4e487b7100000000000000000000000000000000000000000000000000000000600052602260045260246000fd5b600060028204905060018216806200062957607f821691505b6020821081141562000640576200063f620005e1565b5b50919050565b612fed80620006566000396000f3fe60806040526004361061014f5760003560e01c8063a035b1fe116100b6578063bbcd5bbe1161006f578063bbcd5bbe1461045b578063bf5af97314610484578063d96e1f761461049b578063ee55efee146104c6578063f2fde38b146104dd578063fa32fd13146105065761018f565b8063a035b1fe1461035d578063a03effd114610388578063a382b278146103b3578063a3dd2619146103dc578063b0b62f5a14610407578063b29a61c11461041e5761018f565b80635ed9ebfc116101085780635ed9ebfc1461026c578063715018a61461029757806374f4783e146102ae5780637975ce28146102d95780638da5cb5b146102f557806395a25efa146103205761018f565b806312065fe01461019457806312aef8c3146101bf5780633ccfd60b146101ea5780633ee8f8cc1461020157806355a373d61461022a5780635c975abb146102555761018f565b3661018f577f88a5966d370b9919b20f3e2c13ff65706f196a4e32cc2c12bf57088f885258743334604051610185929190611e93565b60405180910390a1005b600080fd5b3480156101a057600080fd5b506101a961052f565b6040516101b69190611ebc565b60405180910390f35b3480156101cb57600080fd5b506101d4610537565b6040516101e19190611ebc565b60405180910390f35b3480156101f657600080fd5b506101ff61053d565b005b34801561020d57600080fd5b5061022860048036038101906102239190611f43565b610658565b005b34801561023657600080fd5b5061023f610932565b60405161024c9190611fe2565b60405180910390f35b34801561026157600080fd5b5061026a610958565b005b34801561027857600080fd5b50610281610a46565b60405161028e9190611ebc565b60405180910390f35b3480156102a357600080fd5b506102ac610a4c565b005b3480156102ba57600080fd5b506102c3610ad4565b6040516102d09190611ebc565b60405180910390f35b6102f360048036038101906102ee9190611ffd565b610ada565b005b34801561030157600080fd5b5061030a611144565b604051610317919061203d565b60405180910390f35b34801561032c57600080fd5b5061034760048036038101906103429190612058565b61116d565b604051610354919061203d565b60405180910390f35b34801561036957600080fd5b506103726111ac565b60405161037f919061211e565b60405180910390f35b34801561039457600080fd5b5061039d61123a565b6040516103aa9190611ebc565b60405180910390f35b3480156103bf57600080fd5b506103da60048036038101906103d59190612058565b611240565b005b3480156103e857600080fd5b506103f1611315565b6040516103fe91906121b7565b60405180910390f35b34801561041357600080fd5b5061041c611399565b005b34801561042a57600080fd5b50610445600480360381019061044091906121d2565b6114c1565b6040516104529190611ebc565b60405180910390f35b34801561046757600080fd5b50610482600480360381019061047d919061223d565b6114d9565b005b34801561049057600080fd5b506104996116a6565b005b3480156104a757600080fd5b506104b06118de565b6040516104bd91906121b7565b60405180910390f35b3480156104d257600080fd5b506104db6118f1565b005b3480156104e957600080fd5b5061050460048036038101906104ff91906121d2565b611b00565b005b34801561051257600080fd5b5061052d6004803603810190610528919061239f565b611bf8565b005b600047905090565b60025481565b610545611cca565b73ffffffffffffffffffffffffffffffffffffffff16610563611144565b73ffffffffffffffffffffffffffffffffffffffff16146105b9576040517f08c379a00000000000000000000000000000000000000000000000000000000081526004016105b090612434565b60405180910390fd5b600047116105fc576040517f08c379a00000000000000000000000000000000000000000000000000000000081526004016105f3906124a0565b60405180910390fd5b6000479050804761060d91906124ef565b503373ffffffffffffffffffffffffffffffffffffffff166108fc829081150290604051600060405180830381858888f19350505050158015610654573d6000803e3d6000fd5b5050565b610660611cca565b73ffffffffffffffffffffffffffffffffffffffff1661067e611144565b73ffffffffffffffffffffffffffffffffffffffff16146106d4576040517f08c379a00000000000000000000000000000000000000000000000000000000081526004016106cb90612434565b60405180910390fd5b600160009054906101000a900473ffffffffffffffffffffffffffffffffffffffff1673ffffffffffffffffffffffffffffffffffffffff166370a08231306040518263ffffffff1660e01b815260040161072f919061203d565b602060405180830381865afa15801561074c573d6000803e3d6000fd5b505050506040513d601f19601f820116820180604052508101906107709190612538565b8111156107b2576040517f08c379a00000000000000000000000000000000000000000000000000000000081526004016107a9906125d7565b60405180910390fd5b600160009054906101000a900473ffffffffffffffffffffffffffffffffffffffff1673ffffffffffffffffffffffffffffffffffffffff1663a9059cbb83836040518363ffffffff1660e01b815260040161080f929190611e93565b6020604051808303816000875af115801561082e573d6000803e3d6000fd5b505050506040513d601f19601f82011682018060405250810190610852919061262f565b50600160009054906101000a900473ffffffffffffffffffffffffffffffffffffffff1673ffffffffffffffffffffffffffffffffffffffff166370a08231306040518263ffffffff1660e01b81526004016108ae919061203d565b602060405180830381865afa1580156108cb573d6000803e3d6000fd5b505050506040513d601f19601f820116820180604052508101906108ef9190612538565b6002819055507f840b27bc078474d051fd02983dbcdbdecec07f5aba3012d0f40e24feeacab1de8282604051610926929190611e93565b60405180910390a15050565b600160009054906101000a900473ffffffffffffffffffffffffffffffffffffffff1681565b610960611cca565b73ffffffffffffffffffffffffffffffffffffffff1661097e611144565b73ffffffffffffffffffffffffffffffffffffffff16146109d4576040517f08c379a00000000000000000000000000000000000000000000000000000000081526004016109cb90612434565b60405180910390fd5b600554421115610a19576040517f08c379a0000000000000000000000000000000000000000000000000000000008152600401610a10906126a8565b60405180910390fd5b6002600160146101000a81548160ff02191690836003811115610a3f57610a3e612140565b5b0217905550565b60035481565b610a54611cca565b73ffffffffffffffffffffffffffffffffffffffff16610a72611144565b73ffffffffffffffffffffffffffffffffffffffff1614610ac8576040517f08c379a0000000000000000000000000000000000000000000000000000000008152600401610abf90612434565b60405180910390fd5b610ad26000611cd2565b565b60055481565b600554421115610b1f576040517f08c379a0000000000000000000000000000000000000000000000000000000008152600401610b16906126a8565b60405180910390fd5b610b27611315565b600160146101000a81548160ff02191690836003811115610b4b57610b4a612140565b5b021790555060006003811115610b6457610b63612140565b5b600160149054906101000a900460ff166003811115610b8657610b85612140565b5b148015610b9557506004544210155b15610bc55760018060146101000a81548160ff02191690836003811115610bbf57610bbe612140565b5b02179055505b60016003811115610bd957610bd8612140565b5b600160149054906101000a900460ff166003811115610bfb57610bfa612140565b5b148015610c09575060055442115b15610c3a576003600160146101000a81548160ff02191690836003811115610c3457610c33612140565b5b02179055505b60016003811115610c4e57610c4d612140565b5b600160149054906101000a900460ff166003811115610c7057610c6f612140565b5b14610cb0576040517f08c379a0000000000000000000000000000000000000000000000000000000008152600401610ca790612714565b60405180910390fd5b8082610cbc9190612734565b3414610cfd576040517f08c379a0000000000000000000000000000000000000000000000000000000008152600401610cf490612800565b60405180910390fd5b6000600160009054906101000a900473ffffffffffffffffffffffffffffffffffffffff1673ffffffffffffffffffffffffffffffffffffffff1663313ce5676040518163ffffffff1660e01b8152600401602060405180830381865afa158015610d6c573d6000803e3d6000fd5b505050506040513d601f19601f82011682018060405250810190610d909190612859565b600a610d9c91906129b9565b83610da79190612734565b9050600160009054906101000a900473ffffffffffffffffffffffffffffffffffffffff1673ffffffffffffffffffffffffffffffffffffffff1663313ce5676040518163ffffffff1660e01b8152600401602060405180830381865afa158015610e16573d6000803e3d6000fd5b505050506040513d601f19601f82011682018060405250810190610e3a9190612859565b600a610e4691906129b9565b83610e519190612734565b6002541015610e95576040517f08c379a0000000000000000000000000000000000000000000000000000000008152600401610e8c90612a76565b60405180910390fd5b8260036000828254610ea79190612a96565b92505081905550600160009054906101000a900473ffffffffffffffffffffffffffffffffffffffff1673ffffffffffffffffffffffffffffffffffffffff1663313ce5676040518163ffffffff1660e01b8152600401602060405180830381865afa158015610f1b573d6000803e3d6000fd5b505050506040513d601f19601f82011682018060405250810190610f3f9190612859565b600a610f4b91906129b9565b83610f569190612734565b60026000828254610f6791906124ef565b925050819055507f5e5e995ce3133561afceaa51a9a154d5db228cd7525d34df5185582c18d3df093384604051610f9f929190611e93565b60405180910390a1600160009054906101000a900473ffffffffffffffffffffffffffffffffffffffff1673ffffffffffffffffffffffffffffffffffffffff1663a9059cbb33836040518363ffffffff1660e01b8152600401611004929190612b0d565b6020604051808303816000875af1158015611023573d6000803e3d6000fd5b505050506040513d601f19601f82011682018060405250810190611047919061262f565b611086576040517f08c379a000000000000000000000000000000000000000000000000000000000815260040161107d90612ba8565b60405180910390fd5b82600860003373ffffffffffffffffffffffffffffffffffffffff1673ffffffffffffffffffffffffffffffffffffffff16815260200190815260200160002060008282546110d59190612a96565b925050819055506007339080600181540180825580915050600190039060005260206000200160009091909190916101000a81548173ffffffffffffffffffffffffffffffffffffffff021916908373ffffffffffffffffffffffffffffffffffffffff160217905550505050565b60008060009054906101000a900473ffffffffffffffffffffffffffffffffffffffff16905090565b6007818154811061117d57600080fd5b906000526020600020016000915054906101000a900473ffffffffffffffffffffffffffffffffffffffff1681565b600680546111b990612bf7565b80601f01602080910402602001604051908101604052809291908181526020018280546111e590612bf7565b80156112325780601f1061120757610100808354040283529160200191611232565b820191906000526020600020905b81548152906001019060200180831161121557829003601f168201915b505050505081565b60045481565b611248611cca565b73ffffffffffffffffffffffffffffffffffffffff16611266611144565b73ffffffffffffffffffffffffffffffffffffffff16146112bc576040517f08c379a00000000000000000000000000000000000000000000000000000000081526004016112b390612434565b60405180910390fd5b42811180156112cc575060045481115b61130b576040517f08c379a000000000000000000000000000000000000000000000000000000000815260040161130290612c75565b60405180910390fd5b8060058190555050565b60006002600381111561132b5761132a612140565b5b600160149054906101000a900460ff16600381111561134d5761134c612140565b5b141561135c5760029050611396565b600454421015801561137057506005544211155b1561137e5760019050611396565b6005544211156113915760039050611396565b600090505b90565b6113a1611cca565b73ffffffffffffffffffffffffffffffffffffffff166113bf611144565b73ffffffffffffffffffffffffffffffffffffffff1614611415576040517f08c379a000000000000000000000000000000000000000000000000000000000815260040161140c90612434565b60405180910390fd5b60055442111561145a576040517f08c379a0000000000000000000000000000000000000000000000000000000008152600401611451906126a8565b60405180910390fd5b600454421015611494576000600160146101000a81548160ff0219169083600381111561148a57611489612140565b5b02179055506114bf565b60018060146101000a81548160ff021916908360038111156114b9576114b8612140565b5b02179055505b565b60086020528060005260406000206000915090505481565b6114e1611cca565b73ffffffffffffffffffffffffffffffffffffffff166114ff611144565b73ffffffffffffffffffffffffffffffffffffffff1614611555576040517f08c379a000000000000000000000000000000000000000000000000000000000815260040161154c90612434565b60405180910390fd5b600960009054906101000a900460ff16156115a5576040517f08c379a000000000000000000000000000000000000000000000000000000000815260040161159c90612d07565b60405180910390fd5b80600160006101000a81548173ffffffffffffffffffffffffffffffffffffffff021916908373ffffffffffffffffffffffffffffffffffffffff1602179055506001600960006101000a81548160ff021916908315150217905550600160009054906101000a900473ffffffffffffffffffffffffffffffffffffffff1673ffffffffffffffffffffffffffffffffffffffff166370a08231306040518263ffffffff1660e01b815260040161165c919061203d565b602060405180830381865afa158015611679573d6000803e3d6000fd5b505050506040513d601f19601f8201168201806040525081019061169d9190612538565b60028190555050565b6116ae611cca565b73ffffffffffffffffffffffffffffffffffffffff166116cc611144565b73ffffffffffffffffffffffffffffffffffffffff1614611722576040517f08c379a000000000000000000000000000000000000000000000000000000000815260040161171990612434565b60405180910390fd5b600160009054906101000a900473ffffffffffffffffffffffffffffffffffffffff1673ffffffffffffffffffffffffffffffffffffffff166370a08231306040518263ffffffff1660e01b815260040161177d919061203d565b602060405180830381865afa15801561179a573d6000803e3d6000fd5b505050506040513d601f19601f820116820180604052508101906117be9190612538565b60025410611801576040517f08c379a00000000000000000000000000000000000000000000000000000000081526004016117f890612d99565b60405180910390fd5b600160009054906101000a900473ffffffffffffffffffffffffffffffffffffffff1673ffffffffffffffffffffffffffffffffffffffff166370a08231306040518263ffffffff1660e01b815260040161185c919061203d565b602060405180830381865afa158015611879573d6000803e3d6000fd5b505050506040513d601f19601f8201168201806040525081019061189d9190612538565b6002819055507f13ea9ba2786de9090cfebb7f725105b970c4a729e2f057ebecfb7c7bfbd1425c6002546040516118d49190611ebc565b60405180910390a1565b600160149054906101000a900460ff1681565b6118f9611cca565b73ffffffffffffffffffffffffffffffffffffffff16611917611144565b73ffffffffffffffffffffffffffffffffffffffff161461196d576040517f08c379a000000000000000000000000000000000000000000000000000000000815260040161196490612434565b60405180910390fd5b600160009054906101000a900473ffffffffffffffffffffffffffffffffffffffff1673ffffffffffffffffffffffffffffffffffffffff1663a9059cbb33600160009054906101000a900473ffffffffffffffffffffffffffffffffffffffff1673ffffffffffffffffffffffffffffffffffffffff166370a08231306040518263ffffffff1660e01b8152600401611a07919061203d565b602060405180830381865afa158015611a24573d6000803e3d6000fd5b505050506040513d601f19601f82011682018060405250810190611a489190612538565b6040518363ffffffff1660e01b8152600401611a65929190611e93565b6020604051808303816000875af1158015611a84573d6000803e3d6000fd5b505050506040513d601f19601f82011682018060405250810190611aa8919061262f565b611ae7576040517f08c379a0000000000000000000000000000000000000000000000000000000008152600401611ade90612e2b565b60405180910390fd5b3373ffffffffffffffffffffffffffffffffffffffff16ff5b611b08611cca565b73ffffffffffffffffffffffffffffffffffffffff16611b26611144565b73ffffffffffffffffffffffffffffffffffffffff1614611b7c576040517f08c379a0000000000000000000000000000000000000000000000000000000008152600401611b7390612434565b60405180910390fd5b600073ffffffffffffffffffffffffffffffffffffffff168173ffffffffffffffffffffffffffffffffffffffff161415611bec576040517f08c379a0000000000000000000000000000000000000000000000000000000008152600401611be390612ebd565b60405180910390fd5b611bf581611cd2565b50565b611c00611cca565b73ffffffffffffffffffffffffffffffffffffffff16611c1e611144565b73ffffffffffffffffffffffffffffffffffffffff1614611c74576040517f08c379a0000000000000000000000000000000000000000000000000000000008152600401611c6b90612434565b60405180910390fd5b8060069080519060200190611c8a929190611d96565b507fd92a74a499de16d969120a4634c33bcc015e26bec1ae8b6a1cc55839cbc0e31033600683604051611cbf93929190612f72565b60405180910390a150565b600033905090565b60008060009054906101000a900473ffffffffffffffffffffffffffffffffffffffff169050816000806101000a81548173ffffffffffffffffffffffffffffffffffffffff021916908373ffffffffffffffffffffffffffffffffffffffff1602179055508173ffffffffffffffffffffffffffffffffffffffff168173ffffffffffffffffffffffffffffffffffffffff167f8be0079c531659141344cd1fd0a4f28419497f9722a3daafe3b4186f6b6457e060405160405180910390a35050565b828054611da290612bf7565b90600052602060002090601f016020900481019282611dc45760008555611e0b565b82601f10611ddd57805160ff1916838001178555611e0b565b82800160010185558215611e0b579182015b82811115611e0a578251825591602001919060010190611def565b5b509050611e189190611e1c565b5090565b5b80821115611e35576000816000905550600101611e1d565b5090565b600073ffffffffffffffffffffffffffffffffffffffff82169050919050565b6000611e6482611e39565b9050919050565b611e7481611e59565b82525050565b6000819050919050565b611e8d81611e7a565b82525050565b6000604082019050611ea86000830185611e6b565b611eb56020830184611e84565b9392505050565b6000602082019050611ed16000830184611e84565b92915050565b6000604051905090565b600080fd5b600080fd5b611ef481611e59565b8114611eff57600080fd5b50565b600081359050611f1181611eeb565b92915050565b611f2081611e7a565b8114611f2b57600080fd5b50565b600081359050611f3d81611f17565b92915050565b60008060408385031215611f5a57611f59611ee1565b5b6000611f6885828601611f02565b9250506020611f7985828601611f2e565b9150509250929050565b6000819050919050565b6000611fa8611fa3611f9e84611e39565b611f83565b611e39565b9050919050565b6000611fba82611f8d565b9050919050565b6000611fcc82611faf565b9050919050565b611fdc81611fc1565b82525050565b6000602082019050611ff76000830184611fd3565b92915050565b6000806040838503121561201457612013611ee1565b5b600061202285828601611f2e565b925050602061203385828601611f2e565b9150509250929050565b60006020820190506120526000830184611e6b565b92915050565b60006020828403121561206e5761206d611ee1565b5b600061207c84828501611f2e565b91505092915050565b600081519050919050565b600082825260208201905092915050565b60005b838110156120bf5780820151818401526020810190506120a4565b838111156120ce576000848401525b50505050565b6000601f19601f8301169050919050565b60006120f082612085565b6120fa8185612090565b935061210a8185602086016120a1565b612113816120d4565b840191505092915050565b6000602082019050818103600083015261213881846120e5565b905092915050565b7f4e487b7100000000000000000000000000000000000000000000000000000000600052602160045260246000fd5b600481106121805761217f612140565b5b50565b60008190506121918261216f565b919050565b60006121a182612183565b9050919050565b6121b181612196565b82525050565b60006020820190506121cc60008301846121a8565b92915050565b6000602082840312156121e8576121e7611ee1565b5b60006121f684828501611f02565b91505092915050565b600061220a82611e59565b9050919050565b61221a816121ff565b811461222557600080fd5b50565b60008135905061223781612211565b92915050565b60006020828403121561225357612252611ee1565b5b600061226184828501612228565b91505092915050565b600080fd5b600080fd5b7f4e487b7100000000000000000000000000000000000000000000000000000000600052604160045260246000fd5b6122ac826120d4565b810181811067ffffffffffffffff821117156122cb576122ca612274565b5b80604052505050565b60006122de611ed7565b90506122ea82826122a3565b919050565b600067ffffffffffffffff82111561230a57612309612274565b5b612313826120d4565b9050602081019050919050565b82818337600083830152505050565b600061234261233d846122ef565b6122d4565b90508281526020810184848401111561235e5761235d61226f565b5b612369848285612320565b509392505050565b600082601f8301126123865761238561226a565b5b813561239684826020860161232f565b91505092915050565b6000602082840312156123b5576123b4611ee1565b5b600082013567ffffffffffffffff8111156123d3576123d2611ee6565b5b6123df84828501612371565b91505092915050565b7f4f776e61626c653a2063616c6c6572206973206e6f7420746865206f776e6572600082015250565b600061241e602083612090565b9150612429826123e8565b602082019050919050565b6000602082019050818103600083015261244d81612411565b9050919050565b7f496e737566696369656e742066756e6473210000000000000000000000000000600082015250565b600061248a601283612090565b915061249582612454565b602082019050919050565b600060208201905081810360008301526124b98161247d565b9050919050565b7f4e487b7100000000000000000000000000000000000000000000000000000000600052601160045260246000fd5b60006124fa82611e7a565b915061250583611e7a565b925082821015612518576125176124c0565b5b828203905092915050565b60008151905061253281611f17565b92915050565b60006020828403121561254e5761254d611ee1565b5b600061255c84828501612523565b91505092915050565b7f4d6f726520746f6b656e73207468616e20617661696c61626c652062616c616e60008201527f6365210000000000000000000000000000000000000000000000000000000000602082015250565b60006125c1602383612090565b91506125cc82612565565b604082019050919050565b600060208201905081810360008301526125f0816125b4565b9050919050565b60008115159050919050565b61260c816125f7565b811461261757600080fd5b50565b60008151905061262981612603565b92915050565b60006020828403121561264557612644611ee1565b5b60006126538482850161261a565b91505092915050565b7f49434f20636c6f73656421000000000000000000000000000000000000000000600082015250565b6000612692600b83612090565b915061269d8261265c565b602082019050919050565b600060208201905081810360008301526126c181612685565b9050919050565b7f49434f206973206e6f7420696e2070726f677265737321000000000000000000600082015250565b60006126fe601783612090565b9150612709826126c8565b602082019050919050565b6000602082019050818103600083015261272d816126f1565b9050919050565b600061273f82611e7a565b915061274a83611e7a565b9250817fffffffffffffffffffffffffffffffffffffffffffffffffffffffffffffffff0483118215151615612783576127826124c0565b5b828202905092915050565b7f4e756d626572206f6620746f6b656e7320646f6573206e6f74206d617463682060008201527f77697468207468652076616c7565210000000000000000000000000000000000602082015250565b60006127ea602f83612090565b91506127f58261278e565b604082019050919050565b60006020820190508181036000830152612819816127dd565b9050919050565b600060ff82169050919050565b61283681612820565b811461284157600080fd5b50565b6000815190506128538161282d565b92915050565b60006020828403121561286f5761286e611ee1565b5b600061287d84828501612844565b91505092915050565b60008160011c9050919050565b6000808291508390505b60018511156128dd578086048111156128b9576128b86124c0565b5b60018516156128c85780820291505b80810290506128d685612886565b945061289d565b94509492505050565b6000826128f657600190506129b2565b8161290457600090506129b2565b816001811461291a576002811461292457612953565b60019150506129b2565b60ff841115612936576129356124c0565b5b8360020a91508482111561294d5761294c6124c0565b5b506129b2565b5060208310610133831016604e8410600b84101617156129885782820a905083811115612983576129826124c0565b5b6129b2565b6129958484846001612893565b925090508184048111156129ac576129ab6124c0565b5b81810290505b9392505050565b60006129c482611e7a565b91506129cf83612820565b92506129fc7fffffffffffffffffffffffffffffffffffffffffffffffffffffffffffffffff84846128e6565b905092915050565b7f54686520636f6e747261637420646f6573206e6f74206861766520656e6f756760008201527f6820746f6b656e73210000000000000000000000000000000000000000000000602082015250565b6000612a60602983612090565b9150612a6b82612a04565b604082019050919050565b60006020820190508181036000830152612a8f81612a53565b9050919050565b6000612aa182611e7a565b9150612aac83611e7a565b9250827fffffffffffffffffffffffffffffffffffffffffffffffffffffffffffffffff03821115612ae157612ae06124c0565b5b828201905092915050565b6000612af782611faf565b9050919050565b612b0781612aec565b82525050565b6000604082019050612b226000830185612afe565b612b2f6020830184611e84565b9392505050565b7f536f6d652070726f626c656d207769746820746f6b656e207472616e7366657260008201527f2100000000000000000000000000000000000000000000000000000000000000602082015250565b6000612b92602183612090565b9150612b9d82612b36565b604082019050919050565b60006020820190508181036000830152612bc181612b85565b9050919050565b7f4e487b7100000000000000000000000000000000000000000000000000000000600052602260045260246000fd5b60006002820490506001821680612c0f57607f821691505b60208210811415612c2357612c22612bc8565b5b50919050565b7f57726f6e6720656e64206f662073616c65206461746521000000000000000000600082015250565b6000612c5f601783612090565b9150612c6a82612c29565b602082019050919050565b60006020820190508181036000830152612c8e81612c52565b9050919050565b7f5365742074686520746f6b656e20636f6e7472616374206973206e6f7420616c60008201527f6c6f776564210000000000000000000000000000000000000000000000000000602082015250565b6000612cf1602683612090565b9150612cfc82612c95565b604082019050919050565b60006020820190508181036000830152612d2081612ce4565b9050919050565b7f4e6f20746f6b656e732068617665206265656e20616464656420746f2074686560008201527f20636f6e74726163742100000000000000000000000000000000000000000000602082015250565b6000612d83602a83612090565b9150612d8e82612d27565b604082019050919050565b60006020820190508181036000830152612db281612d76565b9050919050565b7f556e61626c6520746f207472616e7366657220746f6b656e7320746f2061646d60008201527f696e210000000000000000000000000000000000000000000000000000000000602082015250565b6000612e15602383612090565b9150612e2082612db9565b604082019050919050565b60006020820190508181036000830152612e4481612e08565b9050919050565b7f4f776e61626c653a206e6577206f776e657220697320746865207a65726f206160008201527f6464726573730000000000000000000000000000000000000000000000000000602082015250565b6000612ea7602683612090565b9150612eb282612e4b565b604082019050919050565b60006020820190508181036000830152612ed681612e9a565b9050919050565b60008190508160005260206000209050919050565b60008154612eff81612bf7565b612f098186612090565b94506001821660008114612f245760018114612f3657612f69565b60ff1983168652602086019350612f69565b612f3f85612edd565b60005b83811015612f6157815481890152600182019150602081019050612f42565b808801955050505b50505092915050565b6000606082019050612f876000830186611e6b565b8181036020830152612f998185612ef2565b90508181036040830152612fad81846120e5565b905094935050505056fea2646970667358221220abc5fdb604cf041a01f13a4aa840bd9c82237f3cc45973d27d8acb000c47434a64736f6c634300080a0033",
  "immutableReferences": {},
  "source": "// SPDX-License-Identifier: MIT\npragma solidity >=0.4.22 <0.9.0;\n\nimport \"@openzeppelin/contracts/access/Ownable.sol\";\n\nimport \"./BrazilCarbonCredit.sol\";\n\ncontract BRZCO2Sale is Ownable {\n    // Enums\n    enum Status {notStarted, inProgress, paused, closed} \n    \n    // Public variables\n    BrazilCarbonCredit public tokenContract;\n    Status public icoStatus;\n    uint public tokensForSale;\n    uint public soldTokens;\n    uint public startOfSale;\n    uint public endOfSale;\n    string public price;\n    address[] public investorAddresses;\n\n    mapping (address => uint256) public investorBalances;\n\n    // Internal variables\n    bool internal setedContract = false;\n\n    // Events\n    event Decrease(address _owner, uint _less);\n    event Increase(uint tokensForSale );\n    event Price(address msgSender, string price, string _newPrice);\n    event Received(address, uint);\n    event Sell(address _buyer, uint _amount);  \n    \n    // Modifiers\n    modifier canSetContract() {\n        require(\n            !setedContract,\n            \"Set the token contract is not allowed!\"\n        );\n        _;\n    }\n\n    modifier onlyWhileOpen() {\n        require(\n            block.timestamp <= endOfSale,\n            \"ICO closed!\"\n        );\n        _;\n    }\n\n    // Constructor\n    constructor(uint _startOfSale, uint _endOfSale, string memory _price) {\n        require(\n            _endOfSale > block.timestamp && _endOfSale > _startOfSale,\n            \"Wrong end of sale date!\"\n        );\n\n        startOfSale = _startOfSale;\n        endOfSale = _endOfSale;\n        price = _price;\n\n        if (block.timestamp < startOfSale) {\n            icoStatus = Status.notStarted;\n        } else {\n            icoStatus = Status.inProgress;\n        }\n    }\n    \n    // Receive function\n    receive() external payable {\n        emit Received(msg.sender, msg.value);\n    }\n\n    // External functions\n    function decreaseTokensForSale(address _owner, uint _less) external onlyOwner {\n        require(\n            _less <= tokenContract.balanceOf(address(this)),\n            \"More tokens than available balance!\"\n        );\n        tokenContract.transfer(_owner, _less);\n        tokensForSale = tokenContract.balanceOf(address(this));\n        emit Decrease(_owner,_less);\n    }\n\n    function closeSale() external onlyOwner {\n        require(\n            tokenContract.transfer(\n                msg.sender,\n                tokenContract.balanceOf(address(this))\n            ),\n            \"Unable to transfer tokens to admin!\"\n        );\n\n        selfdestruct(payable(msg.sender));\n    }\n\n    function increaseTokensForSale() external onlyOwner {\n        require(\n            tokensForSale < tokenContract.balanceOf(address(this)),\n            \"No tokens have been added to the contract!\"\n        );\n\n        tokensForSale = tokenContract.balanceOf(address(this));\n        emit Increase(tokensForSale);\n    }\n\n    function managePrice(string memory _newPrice) external onlyOwner {\n        price = _newPrice;\n        emit Price(msg.sender, price, _newPrice);\n    }\n\n    function manageTime(uint _newEndOfSale ) external onlyOwner {\n        require(\n            _newEndOfSale > block.timestamp && _newEndOfSale > startOfSale, \n            \"Wrong end of sale date!\"\n        );\n\n        endOfSale = _newEndOfSale;\n    }\n\n    function setTokenContract(BrazilCarbonCredit _tokenContract) external onlyOwner canSetContract {\n        tokenContract = _tokenContract;\n        setedContract = true;\n        tokensForSale = tokenContract.balanceOf(address(this));      \n    }\n\n    function withdraw() external onlyOwner {\n        require(\n            address(this).balance > 0,\n            \"Insuficient funds!\"\n        );\n\n        uint amount = address(this).balance;\n        // sending to prevent re-entrancy attacks\n        address(this).balance - amount;\n        payable(msg.sender).transfer(amount);\n    }\n\n    // External functions that are view\n    function getBalance() external view returns(uint) {\n        return address(this).balance;\n    }\n\n    // Public functions\n    function buyTokens(uint _numberOfTokens, uint _tokenPrice) public payable onlyWhileOpen {\n        icoStatus = getCurrentStatus();\n        if (icoStatus == Status.notStarted && block.timestamp >= startOfSale) {\n            icoStatus = Status.inProgress;\n        }\n\n        if (icoStatus == Status.inProgress && block.timestamp > endOfSale) {\n            icoStatus = Status.closed;\n        }\n\n        require(\n            icoStatus == Status.inProgress,\n            \"ICO is not in progress!\"\n        );\n\n        require(\n            msg.value == _numberOfTokens * _tokenPrice,\n            \"Number of tokens does not match with the value!\"\n        );\n            \n        uint scaledAmount = _numberOfTokens * 10 ** tokenContract.decimals();\n        require(\n            tokensForSale >= _numberOfTokens * 10 ** tokenContract.decimals(),\n            \"The contract does not have enough tokens!\"\n        );\n\n        soldTokens += _numberOfTokens;\n        tokensForSale -= _numberOfTokens * 10 ** tokenContract.decimals();\n        emit Sell(msg.sender, _numberOfTokens);\n        require(\n            tokenContract.transfer(payable(msg.sender), scaledAmount),\n            \"Some problem with token transfer!\"\n        );\n        investorBalances[msg.sender] += _numberOfTokens;\n        investorAddresses.push(msg.sender);    \n    }\n\n    function paused() public onlyOwner onlyWhileOpen {\n        icoStatus = Status.paused;\n    }\n\n    function unpaused() public onlyOwner onlyWhileOpen{\n        if (block.timestamp < startOfSale) {\n            icoStatus = Status.notStarted;\n        } else {\n            icoStatus = Status.inProgress;\n        }\n    }\n\n    // Public functions that are view\n    function getCurrentStatus() public view returns (Status) {\n        if (icoStatus == Status.paused) {\n            return Status.paused;\n        } else if (block.timestamp >= startOfSale && block.timestamp <= endOfSale) {\n            return Status.inProgress;\n        } else if (block.timestamp > endOfSale) {\n            return Status.closed;\n        } else {\n            return Status.notStarted;\n        }\n    }\n}\n",
  "sourcePath": "/home/dev/Playground/brzco2-smart-contracts/contracts/BRZCO2Sale.sol",
  "compiler": {
    "name": "solc",
    "version": "0.8.10+commit.fc410830.Emscripten.clang"
  },
  "schemaVersion": "3.4.7",
  "updatedAt": "2022-04-21T19:40:30.722Z",
  "networkType": "ethereum",
  "devdoc": {
    "kind": "dev",
    "methods": {
      "owner()": {
        "details": "Returns the address of the current owner."
      },
      "renounceOwnership()": {
        "details": "Leaves the contract without owner. It will not be possible to call `onlyOwner` functions anymore. Can only be called by the current owner. NOTE: Renouncing ownership will leave the contract without an owner, thereby removing any functionality that is only available to the owner."
      },
      "transferOwnership(address)": {
        "details": "Transfers ownership of the contract to a new account (`newOwner`). Can only be called by the current owner."
      }
    },
    "version": 1
  },
  "userdoc": {
    "kind": "user",
    "methods": {},
    "version": 1
  }
}